:020000040800F2
:10000000A0060020D5000008B10D0008770D0008FB
:1000100000000000000000000000000000000000E0
:10002000000000000000000000000000B50D000806
:100030000000000000000000B30D0008B70D00082C
:10004000E7000008E7000008E7000008E7000008F4
:10005000E7000008E7000008E7000008E7000008E4
:10006000E7000008E7000008E7000008E7000008D4
:10007000E7000008E7000008E7000008E7000008C4
:10008000E7000008E700000800000000E7000008A3
:10009000E7000008E7000008E7000008E7000008A4
:1000A000E7000008E7000008E7000008E700000894
:1000B000E700000800000000E7000008044885464B
:1000C00000F090F800480047E9130008C046C04619
:1000D000A00600200448804704480047FEE7FEE7EA
:1000E000FEE7FEE7FEE7FEE72F0E0008BD00000872
:1000F00030B50B46014600202022012409E00D46C0
:10010000D5409D4205D31D469540491B2546954047
:1001100040191546521E002DF1DC30BDF0B51FB45C
:100120000646002082B005464024019100901BE065
:10013000019922460F46304600F020F8049A059BAC
:10014000801A994110D310461946224600F039F81A
:10015000361A8F410197224601200021009F00F0AE
:1001600030F838184D4100902046641E0028DFDC2E
:10017000019B00982946324607B0F0BD10B5202AF1
:1001800004DB0846203AD040002110BD0B46D34086
:10019000D0402024A21A91400843194610BDD2B283
:1001A00001E00270401C491EFBD270470022F6E7B6
:1001B00010B513460A4604461946FFF7F0FF2046DD
:1001C00010BD10B5202A04DB0146203A91400020E2
:1001D00010BD914020239C1A0346E34019439040F0
:1001E00010BD0000064C0125064E05E0E36807CC73
:1001F0002B430C3C98471034B442F7D3FFF762FF0F
:10020000441500086415000870B5044600F0E0F8D5
:100210000546601C02D004480078241800F0D8F885
:10022000401BA042FAD370BD00000020F8B50023A7
:1002300003240125BAE02E469E40B44632407CD0CD
:100240000E79B607B60F012E01D0022E17D186689F
:100250002746B6465E00B74000967646BE43B64691
:10026000CF68009EB740764637438760466867464A
:10027000BE430F79FF06FF0F9F40374347600E795B
:10028000F643B6070ED0C6682746B4465E00B646AB
:10029000B7406646BE43B4468F687646B74066466A
:1002A0003743C7600E79B607B60F022E14D1DE08A9
:1002B000B60036180096366A5F07B446FE0E0F2762
:1002C000B646B7406646BE43B4460F697646B74069
:1002D00066463743009E376206682746B4465E008E
:1002E000B646B7406646BE430F79B446BF07BF0F58
:1002F0007646B7406646374307604E68B603B60F8A
:1003000053D02D4FBE692E43BE61BE699F08F607CC
:10031000F60F2A4EBF00BE190096B6680F27B446E6
:100320009E07360FB646B7406646BE430927FF060E
:10033000B446B84202D1002710E036E0204FB84260
:1003400001D101270AE01F4FB84201D1022705E081
:100350001D4FB84201D1032700E005277646B7407C
:1003600066463743009EB760184E36684F6896431E
:10037000FF0300D51643154F3E607E684F689643D5
:10038000BF0300D51643114F7E60BE684F68964389
:10039000FF0200D516430D4FBE60FE684F689643BE
:1003A000BF0200D51643094AD6605B1C0A68164690
:1003B000DE4000D03FE7F8BD0010024000000140E1
:1003C0000004004800080048000C004800040140F8
:1003D00001488068704700000000002002488168E2
:1003E00002788918816070470000002010B5064827
:1003F0000168102211430160002000F007F800F0AE
:1004000027F8002010BD00000020024070B504460F
:100410000D4D7D202978C000FFF76AFE01460B488C
:100420000068FFF765FE00F03FFB002809D1042CAF
:1004300007D200222146401E00F01EF800206C600A
:1004400070BD012070BD0000000000200C000020E5
:1004500008B5084881690122114381618169114011
:100460000091C26901040A43C261C069084000905A
:1004700008BD00000010024010B500F08DFE10BD58
:10048000F8B505460068394CC00352D5E06900262E
:10049000C00007D4E16920040143E161E169014042
:1004A0000126009132480168C90510D401688215FF
:1004B00011430160FFF78CFF074604E0FFF788FF58
:1004C000C01B642824D82A480068C005F6D5206AD5
:1004D00003273F02384020D06968394081421CD050
:1004E000206A226AB843012109040A432262226A6F
:1004F0008A4322622062C0070FD0FFF769FF009095
:1005000008E0FFF765FF0099411A1A48814201D9B6
:100510000320F8BD206A8007F3D5206A6968B843D4
:1005200008432062002E04D0E169012000078143C6
:10053000E1612878C00705D0206BA9688008800099
:10054000084320632878800605D5206B1021884356
:10055000E968084320632888400505D5206B4021C1
:1005600088432969084320630020F8BD0010024039
:100570000070004088130000F8B50F46060059D0FF
:100580003A4D2868C007C00FB84209D22868400811
:100590004000384328602868C007C00FB84249D1DE
:1005A0003068334C81070CD5400704D560680721BB
:1005B0000902084360606068F0218843B16808431D
:1005C00060603078C00726D0706801280ED021689E
:1005D00002280ED0890700292CDA61688908890071
:1005E00001436160FFF7F4FE00900DE0216889038C
:1005F000F1E78901EFE7FFF7EBFE0099411A1D488B
:10060000814201D90320F8BD60680C21084071685F
:1006100089008842EFD12868C007C00FB8420BD9C3
:10062000286840084000384328602868C007C00F89
:10063000B84201D00120F8BD3078400706D5606887
:10064000072109028843F1680843606000F028F838
:100650006168094A0906090F515CC84007490860EA
:100660000020FFF7D3FE0020F8BD0000002002406C
:1006700000100240881300002C1500080C00002018
:100680000448054900684968044A4905490F515C16
:10069000C84070470C000020001002403C150008C4
:1006A00010B514A30FCB88B06C460FC415A30FCBA5
:1006B0000FC4184A51680C200B4603401648042BFF
:1006C00016D0082B14D18B021B0F6C46E45CD26A47
:1006D00004AB1207120F9A5CC90305D50023194613
:1006E000FFF71CFD214601E020460C4900F03CFDCF
:1006F00008B010BD02030405060708090A0B0C0D1B
:100700000E0F10100102030405060708090A0B0C5E
:100710000D0E0F100010024000127A0000093D007B
:10072000FEB5040070D02078DC4DC0074AD0686860
:100730000007800F012807D068680007800F022893
:1007400009D16868C00306D5286880033AD5606877
:100750000028E7D036E06168012914D00120800428
:10076000002901D0052914D02A68012109048A43EF
:100770002A602968814329606068002816D0FFF745
:1007800027FE06460EE02868012109040843286078
:10079000F2E7296801432960F5E7FFF719FE801B9E
:1007A00064286ED828688003F7D50BE0FFF710FEA9
:1007B000064604E0FFF70CFE801B6428F1D8286889
:1007C0008003F7D420780126800700283CDA686887
:1007D0000007800F07D068680007800F022809D142
:1007E0006868C00306D42868800716D5E068012829
:1007F0000AD112E0E0680028286816D0304328604B
:10080000FFF7E6FD074605E043E1FFF7E1FDC01B0A
:100810000228C6D828688007F7D52868F8218843B9
:100820002169C900084328600EE0400840002860A4
:10083000FFF7CEFD074604E0FFF7CAFDC01B022804
:10084000AFD828688007F7D42078000722D5E06960
:100850000028686A0ED030436862FFF7B9FD07468A
:1008600004E0FFF7B5FDC01B02289AD8686A80072C
:10087000F7D50FE0400840006862FFF7A9FD074682
:1008800005E09DE0FFF7A4FDC01B022889D8686A37
:100890008007F7D4207804274007002860DA00207A
:1008A0000190E869C00008D4E969B8060143E9612C
:1008B000E969014001200091019079480168C9056A
:1008C00011D40168821511430160FFF781FD00908A
:1008D00005E0FFF77DFD0099401A642870D8704844
:1008E0000068C005F5D5A06801280AD0002801D00D
:1008F000052810D0286A400840002862286AB843BA
:1009000001E0286A30432862A068002812D0FFF76F
:100910005FFD00900AE0286A38432862F1E7FFF79C
:1009200057FD0099411A5F48814249D8286A8007DB
:10093000F5D50DE0FFF74CFD009006E0FFF748FD10
:100940000099411A574881423AD8286A8007F5D45D
:100950000198002804D0E969012000078143E9617A
:100960002078C00635D5606901280CD0401D686B21
:1009700023D038436863686B400840006863FFF722
:1009800027FD064622E0686B38436863686B304396
:100990006863FFF71DFD064604E0FFF719FD801BA5
:1009A00002285BD8686B8007F7D5686BF82188430D
:1009B000A169C900084368630BE0B8436863F4E7C2
:1009C0004CE0FFF705FD801B022847D8686B8007C5
:1009D000F7D4206A00285ED069680907890F0229C8
:1009E00042D0012636060228286805D0B043286088
:1009F000FFF7EEFC044633E0B0432860FFF7E8FC65
:100A0000074604E0FFF7E4FCC01B022826D828684C
:100A10008001F7D4E86AE16A000900010843E8624E
:100A2000616AA06A084369683D2212049143084341
:100A30006860286830432860FFF7CAFC044604E079
:100A4000FFF7C6FC001B022808D828688001F7D5EC
:100A500021E0FFF7BDFC001B022801D90320FEBDE9
:100A600028688001F5D416E00128F8D06868E96AA2
:100A700001221204636A02409A420AD10907E26A1B
:100A8000090F914205D10F2189040840A16A8842CB
:100A900001D00120FEBD0020FEBD0000001002407C
:100AA0000070004088130000094910B5401E8842BC
:100AB00001D9012010BD074C60610321081F00F01F
:100AC0006BFB0020A06107202061002010BD00000A
:100AD000FFFFFF0000E000E010B5040003D0A06FAE
:100AE000002802D007E0012010BD0021742001552C
:100AF000204600F027F82420A067206801684908F4
:100B000049000160204600F02BFA0128ECD0606A11
:100B1000002802D0204600F08BF9206841680922A5
:100B2000D20291434160206881682A22914381600A
:100B300020680168012211430160204600F0DEF9BF
:100B400010BD000010B586B0044614216846FFF7BA
:100B50002DFB1349206888421FD112488269012168
:100B600089030A43826182690A4005924269C90089
:100B70000A4342614069084005900320400200900A
:100B80000220019000200290032003900120049095
:100B900009206946C006FFF749FB06B010BD0000FA
:100BA0000038014000100240FFB50446C06F85B018
:100BB00017460E46202870D1002E0AD0002F08D0EC
:100BC000A168C001814207D12069002804D1F00743
:100BD00002D0012009B0F0BD204660300090007DB9
:100BE00001285AD000980121017500208021085168
:100BF0002221E1672066FFF7EBFB25464035029096
:100C00002F836F830120A1680003FF22814204D15A
:100C10002369002B09D1224A07E0002901D00022D4
:100C200003E02369002B00D07F22AA8392B20192B5
:100C3000814202D12069002808D037460026009959
:100C4000002008750198C0B2039018E00027F6E76D
:100C500008980090002220212046029B00F01AFAFA
:100C6000002801D00320B5E72068002F0ED0818C2A
:100C70000398014039707F1C688B401E6883688B25
:100C80000028E5D12020E0670020A3E7808C0199AF
:100C900008403080B61CEFE7FFE702209AE700002B
:100CA000FF010000FFB50446806F83B017460D4674
:100CB00020285ED1002D0AD0002F08D0A168C001E5
:100CC000814207D12069002804D1E80702D0012021
:100CD00007B0F0BD204660300090007D012848D06C
:100CE0000098012101750020802108512120A06772
:100CF000FFF76EFB2646403601903782778201204F
:100D0000A1680003814202D12069002805D02F4646
:100D1000002500990020087511E00027F9E700225E
:100D20008021204600F0B6F9002815D1002F15D0FB
:100D30002168387808857F1C708A401E7082708A0E
:100D4000019B002806980090E9D10022402120460E
:100D500000F0A0F9002808D00320B9E7288821680E
:100D6000C005C00D0885AD1CE6E72020A067002067
:100D7000AEE70220ACE7FEE710B50C480A49016077
:100D80004B214902416000218160C16001618161A4
:100D9000C1610C22016242614162FFF79DFE0028A1
:100DA00001D072B6FEE710BD0038014018000020E7
:100DB000FEE77047704710B5FFF710FB10BD70B528
:100DC00096B030216846FFF7F1F900250C950D9596
:100DD0000E95142110A80F95FFF7E8F901242004BF
:100DE000099000940001022601940A9008960B9540
:100DF0006846FFF795FC002801D072B6FEE7072091
:100E00000C900E9501210D960F950CA8FFF7B4FBE1
:100E1000002801D072B6FEE710A812951094FFF7D3
:100E20002FFB002801D072B6FEE716B070BD7047E8
:100E300010B5818CC90707D001684A6801235B049B
:100E40009A43836A1A434A60818C890707D50168EF
:100E50004A6801231B049A43C36A1A434A60818C7F
:100E6000490707D501684A6801239B049A43036B2D
:100E70001A434A60818C090707D501684A68012333
:100E8000DB039A43436B1A434A60818CC90607D53A
:100E90000268916801231B039943836B1943916096
:100EA000818C890607D501688A6801235B039A4310
:100EB000C36B1A438A60818C490612D503685A684D
:100EC00001210905046C8A4322435A60026C8A425C
:100ED00007D10268516803235B059943436C1943AA
:100EE0005160818C090607D501684A680123DB043B
:100EF000806C9A4302434A6010BD0000F8B5044676
:100F0000002680300660FFF763FA05462068006817
:100F1000124F000709D501212B4600224905204622
:100F2000009700F0B7F800280DD12068006840074E
:100F30000BD501212B46002289052046009700F0A1
:100F4000A9F8002801D00320F8BD2020A067E067A1
:100F50002666603426750020F8BD0000FFFFFF0103
:100F600070B5044680682169E2690843616900251B
:100F70001143226808431168404B19400143116036
:100F800021684868032212039043E26810434860D6
:100F9000A169206A084321688A680B231B029A43CF
:100FA00002438A6036492068884210D13548006B78
:100FB0008007800F0ED0012805D0022805D0032815
:100FC0000AD1022109E0042107E0082105E02E49A9
:100FD000884201D1002100E010210120E369C00313
:100FE0002A4A2B4E834223D1002906D0022907D05A
:100FF000042907D0082937D108E0FFF741FB03E0B7
:10100000104603E0FFF74CFB002831D06168400038
:101010004A088018FFF76CF880B201461039B142D7
:1010200022D81B49491C01400007400F08431DE01E
:10103000002906D0022907D0042907D0082913D196
:1010400008E0FFF71DFB03E0104603E0FFF728FB75
:1010500000280DD061684A081018FFF749F880B2DF
:1010600001461039B14201D9012501E02168C8606B
:1010700000206066A066284670BD0000F369FFFF8F
:1010800000380140001002400044004000127A0085
:10109000EFFF0000FFB581B00546174604466035F6
:1010A0000A9E55E0701C53D0FFF792F90499401A3C
:1010B000B04230D8002E2ED020680168490747D5AD
:1010C000C069C043000543D401202168C002086202
:1010D000EFF31080012181F3108821680B68FF2253
:1010E000A13293430B6080F31088EFF3108001214D
:1010F00081F3108821688A68520852008A6080F360
:1011000010882020A067E0678034206000202875C8
:10111000032005B0F0BDEFF31080012181F31088AA
:1011200021680B68FF22A13293430B6080F3108883
:10113000EFF31080012181F3108821688A6852083A
:1011400052008A6080F310882020A067E067DDE706
:101150002068C1690298884304D00020B842A1D019
:101160000020D6E70120F9E7F8B5040C8BB226463B
:1011700082B25E430D0C1046370C5843360480197A
:101180000021794116466E43370C360480197941A7
:1011900026466E438919F8BD8307FF22DB0E9A406D
:1011A0008907090E9940002808DB830809489B003D
:1011B0001B18186890430843186070470007000F19
:1011C0000838830804489B001B18D86990430843DB
:1011D000D861704700E400E000ED00E002E008C8DC
:1011E000121F08C1002AFAD170477047002001E0A1
:1011F00001C1121F002AFBD170470000F3B50C4655
:10120000002183B0651E20E00020631A5B1E18E0F9
:10121000039A4600B2185778D678BC46B646B7420D
:101220000DD216786F463E70019666467E709678AF
:10123000167076465670019E96706646D670401CB3
:10124000C0B28342E4DC491CC9B2A942DCDB002500
:1012500008E0039869000918C82302220348FFF731
:1012600021FD6D1CA542F4DB05B0F0BD1800002087
:1012700010B5002823D0124B0022001F196803E08C
:10128000814203D80A4649680029F9D1002A0AD0C8
:101290001368841A9C4204D1006818181060104624
:1012A00002E0506000E01860002907D002680B1AC5
:1012B000934203D10B68D21802604968416010BDA7
:1012C00010000020F8B505247D250646ED0005E058
:1012D00068460078042801D0684604702B46012235
:1012E00069460B48FFF760FC0028F1D104216846ED
:1012F0000170C823012269460548FFF7D3FC684600
:101300000078042802D1304600F05EF8F8BD0000F5
:1013100018000020F8B505247D250646ED0005E0FF
:1013200068460078022801D0684604702B460122E6
:1013300069460B48FFF738FC0028F1D102216846C6
:101340000170C823012269460548FFF7ABFC6846D7
:101350000078022803D164213046FFF74FFFF8BD23
:101360001800002038B504460D4B012269460D488F
:10137000FFF71AFC002803D168460078032800D044
:10138000052069460870C82301220648FFF78AFC39
:1013900068460078032802D1204600F005F838BDE1
:1013A000400D03001800002070B50546632460005E
:1013B0004119C82301220348FFF774FC641E592C0D
:1013C000F5DC70BD1800002070B5054600246000F3
:1013D0004119C82301220348FFF764FC641C0A2C4E
:1013E000F5DB70BD1800002008B5FEF7FFFFFFF722
:1013F000E6FC21484269012189050A4342614269AC
:101400000A400092426949110A434261406908401A
:101410000090FFF7B1FC7D24E400C82000F030F814
:1014200005462046FEF7F0FE234601226946134892
:10143000FFF7BAFB002803D168460078012800D0E6
:10144000052069460870C82301220C48FFF72AFCD2
:1014500068460078012802D1284600F047F828465F
:10146000FFF758FF2846FFF77DFF2846FFF72AFFC2
:101470002846FFF7FDFED0E70010024018000020CC
:10148000F0B50B30C108C900144F0026144A0FE014
:1014900003688B420BD38B4205D95C1A431845680D
:1014A00030C3083B00E04368136002C004E0021D43
:1014B00010680028ECD13046002803D13868002895
:1014C00001D00020F0BD064A06481060064A121AF4
:1014D000D208D20044C001203860D7E714000020B1
:1014E00010000020A4000020A0020020F8B5002475
:1014F0007D270646FF00600081190D463B4602220B
:101500000948FFF751FB002802D0641EE4B205E051
:101510002946C82302220448FFF7C4FB641CE4B236
:10152000642CE8D32046F8BD18000020000000001D
:101530000000000001020304060708090000000083
:1015400001020304641500080000002018000000D8
:10155000DC1100087C150008180000208806000037
:10156000EC11000801000000040000000000000071
:0C15700000127A000000000000000000E3
:04000005080000BD32
:00000001FF
